:020000040800F2
:1000000040080020890100088D0100088F010008C8
:10001000910100089301000895010008000000000C
:100020000000000000000000000000009701000830
:1000300099010008000000009B0100089D010008D4
:100040009F0100089F0100089F0100089F01000810
:100050009F0100089F010008690900089F0100082E
:100060009F0100089F0100089F0100089F010008F0
:100070009F0100089F0100089F0100089F010008E0
:100080009F0100089F0100089F0100089F010008D0
:100090009F0100089F0100089F0100089F010008C0
:1000A0009F0100089F0100089F0100089F010008B0
:1000B0009F010008C11E00089F0100089F01000861
:1000C0009F0100089F0100089F0100089F01000890
:1000D0009F010008012300089F0100089F010008FC
:1000E0009F0100089F0100089F01000800F002F82E
:1000F00000F03AF80AA090E8000C82448344AAF188
:100100000107DA4501D100F02FF8AFF2090EBAE885
:100110000F0013F0010F18BFFB1A43F0010318473B
:100120004831000068310000103A24BF78C878C117
:10013000FAD8520724BF30C830C144BF04680C60ED
:10014000704700000023002400250026103A28BF35
:1001500078C1FBD8520728BF30C148BF0B60704739
:100160001FB51FBD10B510BD00F056F81146FFF7C2
:10017000F7FF02F0F9FA00F074F803B4FFF7F2FFAA
:1001800003BC02F081FA000008480047FEE7FEE7E2
:10019000FEE7FEE7FEE7FEE7FEE7FEE7FEE7FEE737
:1001A00003480449044A054B70470000ED0000086D
:1001B00040020020400800204004002040040020AD
:1001C00070474FF0000200B513469446964620391A
:1001D00022BFA0E80C50A0E80C50B1F12001BFF400
:1001E000F7AF090728BFA0E80C5048BF0CC05DF866
:1001F00004EB890028BF40F8042B08BF704748BFB4
:1002000020F8022B11F0804F18BF00F8012B704727
:100210007047704770477047754600F02BF8AE4640
:1002200005006946534620F00700854618B020B502
:10023000FFF7B6FFBDE820404FF000064FF0000783
:100240004FF000084FF0000B21F00701AC46ACE87E
:10025000C009ACE8C009ACE8C009ACE8C0098D46EB
:10026000704710B50446AFF300802046BDE810404B
:10027000FFF783BF00487047E001002030B5024619
:100280000B46AA20002113E0555C684000240BE0D7
:1002900000F0800525B14506280E80F02F0001E012
:1002A0004506280E651CECB2082CF1DB4D1CE9B2AA
:1002B0009942E9DB30BD10B502461478012303E012
:1002C000D05C4440581CC3B2481E9842F8DC105C15
:1002D000A04201D1012010BD0020FCE710B502466C
:1002E0000B461078012103E0545C60404C1CE1B2E5
:1002F0009942F9DB10BD000070B5002440E0601C9D
:100300002149C870C4EB0410204911F810001E499F
:100310000871C4EB04101D4901EB400040781A49F4
:100320004871C4EB0410194901EB4000807816496C
:100330008871C4EB0410154901EB4000C0781249E4
:10034000C87108211048FFF7C9FF0F490872092634
:1003500000250EE028466A1CD5B20B4A115C0C48F9
:1003600002F061F900BF4021094802F08FF800282F
:10037000F9D0301EA6F10101CEB2EBD1601CC4B29F
:10038000042CBCDB70BD000076000020280100209A
:10039000003801402DE9F041284801F06BF907468B
:1003A000274902F055FD064602F0FEFC254948713A
:1003B00022481E3001F05EF90746214902F048FD4F
:1003C000064602F0F1FC1F4988711C483C3001F0E0
:1003D00051F907461A4902F03BFD064602F0E4FCDB
:1003E0001849C87115485A3001F044F907461449B4
:1003F00002F02EFD064602F0D7FC124908720921D0
:100400001048FFF76BFF0F4948720A2500240EE0E1
:100410002046621CD4B20B4A115C0B4802F003F96F
:1004200000BF4021084802F031F80028F9D0281E0A
:10043000A5F10101CDB2EBD1BDE8F081330100207F
:10044000000020417F0000200038014010B500F07E
:10045000D1FF012001F090F800BF212001F05AF8EF
:100460000028FAD0022000F011FC102000F0CAFB96
:100470004FF46011002001F0A3F8012001F09AF878
:1004800000BF392001F046F80128FAD1022001F01E
:10049000A5F800BF01F05CF80828FBD1002001F0AE
:1004A0005FF8002001F06EF84FF4806001F076F8FC
:1004B000002000F073FF10BD70B57B480078552810
:1004C0007ED179484078AA28FAD1784801787648D0
:1004D000FFF7F1FE30B9012075490870084600F0B9
:1004E000FDF870BD002412E070480088062804D191
:1004F0006D48005D6F49085507E06C480088072883
:1005000003D16948005D6C490855601CC4B2674856
:1005100000888442E8DB65480088062834D16548B5
:100520008078062808D16348C078072804D161483C
:10053000007908B9FFF7E0FE5E488078062809D107
:100540005C48C078022805D15A480079012801D1B9
:10055000FFF720FF57488078062808D15548C07813
:10056000062804D15348007908B900F0C3FA51486D
:100570008078062808D14F48C078012804D14D481A
:100580000579284600F06CFA4848008807287AD197
:100590004948807807280DD14748C078032809D1F9
:1005A0004548007930B944484079012802D10221F8
:1005B00001F088FD40488078072810D13E4800E0CF
:1005C00061E0C07803280AD13B48007938B93A483D
:1005D0004079102803D10321012001F073FD364832
:1005E000807807280ED13448C07803280AD13248D1
:1005F000007938B930484079112803D1042101200D
:1006000001F060FD2C48807807280FD12A48C07877
:1006100003280BD128480079012807D126484079C2
:10062000102803D10321022001F04CFD22488078DC
:1006300007280FD12048C07803280BD11E48007925
:10064000012807D11C484079112803D10421022038
:1006500001F038FD1848807807280FD11648C07877
:1006600003280BD114480079102807D1124840798B
:10067000112803D10421032001F024FD0E4A5179F1
:10068000107901F013FE002404E000200A49085507
:10069000601CC4B2054800888442F6DB0020034990
:1006A000088000BF1DE70000A80000203C000020DB
:1006B00028010020640000208900002010B503A25A
:1006C0000121132000F04EFE10BD00007777772E39
:1006D0007A696F746C61622E636F6D0030B589B09A
:1006E0000446202101A8FFF76CFD01AD21480078E8
:1006F0002178884210D11F484078617888420BD118
:100700001C488078A178884206D11A48C078E178E0
:10071000884201D109B030BD207816490870607850
:100720004870A0788870E078C870492028706D1CE7
:10073000442028706D1C3A2028706D1C21782846B2
:1007400000F0B4FC05446178284600F0AFFC054495
:10075000A178284600F0AAFC0544E178284600F07C
:10076000A5FC054401AA0321132000F0FBFD00BFF6
:10077000D0E700004400002030B589B004462021B5
:1007800001A8FFF71EFD01AD2148007821788842BD
:1007900010D11F484078617888420BD11C4880787E
:1007A000A178884206D11A48C078E178884201D100
:1007B00009B030BD20781649087060784870A0787C
:1007C0008870E078C870492028706D1C442028701B
:1007D0006D1C3A2028706D1C2178284600F066FCBC
:1007E00005446178284600F061FC0544A17828465C
:1007F00000F05CFC0544E178284600F057FC054415
:1008000001AA0421132000F0ADFD00BFD0E70000D5
:100810004800002030B589B00446202101A8FFF728
:10082000D0FC01AD214800782178884210D11F48C2
:100830004078617888420BD11C488078A178884242
:1008400006D11A48C078E178884201D109B030BD9C
:1008500020781649087060784870A0788870E07831
:10086000C870492028706D1C442028706D1C3A20E7
:1008700028706D1C2178284600F018FC054461782A
:10088000284600F013FC0544A178284600F00EFC31
:100890000544E178284600F009FC054401AA052139
:1008A000132000F05FFD00BFD0E700004C000020E7
:1008B00030B589B00446202101A8FFF782FC01ADC4
:1008C000214800782178884210D11F48407861780B
:1008D00088420BD11C488078A178884206D11A48FA
:1008E000C078E178884201D109B030BD207816493E
:1008F000087060784870A0788870E078C8704920E7
:1009000028706D1C442028706D1C3A2028706D1CC6
:100910002178284600F0CAFB05446178284600F09B
:10092000C5FB0544A178284600F0C0FB0544E178EA
:10093000284600F0BBFB054401AA0621132000F065
:1009400011FD00BFD0E700005000002010B503A249
:100950000021084600F006FD10BD00004C46202096
:1009600056312E300000000010B513480078F0B961
:10097000002404E0002011490855601CC4B2402C3A
:10098000F8DB0E4801F0ECF90B49087008460078D6
:100990000D2801DA002008700D210848FFF76EFCD1
:1009A0000649497B884202D0002003490870012093
:1009B00000F006F810BD0000A7000020A0010020F4
:1009C00001490860704700001404014000212349D8
:1009D0008279002A3AD00A46126803689A430B4685
:1009E0001A600A1D126803689A430B1D1A60027987
:1009F00011440A6803681A430A60184A08321268E8
:100A000003689A43154B08331A601A1D126803686D
:100A10009A43124B0C331A604279102A0ED11A1FD6
:100A2000126803681A430D4B08331A601A1D1268C6
:100A300003681A43094B0C331A600DE007494279E9
:100A400011440A6803681A430A6005E002791144F8
:100A50000A6803689A430A60704700000004014076
:100A600070B5044601201F49087034B1012C08D02C
:100A7000102C0AD0112C10D10BE001201A4908705B
:100A80000FE00220184908700BE003201649087097
:100A900007E004201449087003E0002012490870A0
:100AA00000BF00BF114804710521FFF717FC0F4973
:100AB0004871062600250EE028466A1CD5B20B4A6E
:100AC000115C0B4801F0AFFD00BF4021084801F068
:100AD000DDFC0028F9D0301EA6F10101CEB2EBD129
:100AE00070BD000097000020980000206A000020E0
:100AF000003801407CB50020009001901749087033
:100B000055208DF80000AA208DF8010006208DF8F0
:100B1000020016208DF8030000208DF80400052146
:100B20006846FFF7DBFB8DF80500062500240EE084
:100B30002046621CD4B21DF80010094801F073FD74
:100B400000BF4021064801F0A1FC0028F9D0281E72
:100B5000A5F10101CDB2EBD17CBD000097000020D2
:100B6000003801400149C860704700000020024081
:100B700030B5044604254FF4302000F09FF80546B8
:100B8000042D17D10C48006940F002000A490861A1
:100B900008464461006940F0400008614FF430208D
:100BA00000F08CF805460448006941F6FD710840E4
:100BB00001490861284630BD0020024004200B494D
:100BC000C96801F0010109B101200EE00749C968B7
:100BD00001F0040109B1022007E00449C96801F0ED
:100BE000100109B1032000E00420704700200240FA
:100BF0000348006940F08000014908617047000027
:100C0000002002400549096821F01001034A1160E3
:100C1000114609680143116070470000002002403E
:100C200078B506460C46042500200090E80200F046
:100C300045F80546042D24D11348006940F0010011
:100C4000114908613480E80200F038F80546042DA7
:100C500010D1B01C0090200C00990880E80200F030
:100C60002DF805460848006941F6FE71084006491E
:100C7000086106E00448006941F6FE710840024937
:100C80000861284678BD000000200240014600208F
:100C9000034A106800F038000843106070470000F5
:100CA00000200240024803494860034848607047FA
:100CB0002301674500200240AB89EFCD00B5024615
:100CC0000423FFF77BFF034603E0FFF777FF0346AC
:100CD000521E012B01D1002AF7D102B90523184673
:100CE00000BD000030B500228B071C0F0F2303FA54
:100CF00004F20B4B8C1053F824309343084C8D10A6
:100D000044F8253023468C1053F824308C07240FE8
:100D100000FA04F42343024C8D1044F8253030BD12
:100D2000080001402DE9F041024600250026002080
:100D300000230024002791F803C00CF00F0591F860
:100D400003C00CF0100CBCF1000F03D091F802C0EE
:100D50004CEA050591F800C0BCF1000F31D01468D1
:100D600000202BE04FF0010C0CFA00F3B1F800C0AA
:100D70000CEA03069E4220D183004FF00F0C0CFAC0
:100D800003F7BC4305FA03FC4CEA040491F803C0E2
:100D9000BCF1280F06D14FF0010C0CFA00FCC2F890
:100DA00014C00AE091F803C0BCF1480F05D14FF020
:100DB000010C0CFA00FCC2F810C0401C0828D1D36A
:100DC0001460B1F800C0BCF1FF0F34DD546800209E
:100DD0002EE000F1080C4FF0010808FA0CF3B1F80E
:100DE00000C00CEA03069E4221D183004FF00F0C95
:100DF0000CFA03F7BC4305FA03FC4CEA040491F82F
:100E000003C0BCF1280F05D100F1080C08FA0CF85A
:100E1000C2F8148091F803C0BCF1480F07D100F16B
:100E2000080C4FF0010808FA0CF8C2F81080401CBA
:100E30000828CED35460BDE8F08102460020D36874
:100E40000B400BB1012000E000207047416170476A
:100E5000016170477FB510226946002000F0CAFB8F
:100E60000646102E17D1002413E000250DE005EBF7
:100E700084001DF80000C4EB0411074A02EB410195
:100E8000C5F103028854681CC5B2042DEFDB601C59
:100E9000C4B2042CE9DB7FBD2801002008B5012184
:100EA000082000F097FAC020ADF8000014208DF85B
:100EB000030003208DF8020069460448FFF732FF63
:100EC000C0210248FFF7C4FF08BD0000000C01402C
:100ED00070B504461248006820F070401049086060
:100EE0000846006840F04050086000200D49086046
:100EF000002511E0042001F011FCE0090949091D59
:100F000008606006040E01200749C1F8980100201E
:100F100004490860681CC5B2082DEBDB70BD0000F9
:100F2000000C0140988121420080214210B50F48F9
:100F3000006820F070400D4908600846006840F0E5
:100F40004050086001200A4908600A49C1F8980128
:100F5000022001F0E3FB002005490860022001F0B7
:100F6000DDFB00200349C1F8980110BD000C0140D1
:100F70009C8121420080214210B50F48006820F07A
:100F800070400D4908600846006840F04050086015
:100F900000200A4908600A49C1F89801022001F0BE
:100FA000BDFB01200549091F08600549C1F89C01E6
:100FB000022001F0B3FB10BD000C01409C812142D6
:100FC0000080214210B51248006820F0704010499E
:100FD00008600846006840F08040086001200D4924
:100FE00008600D49C1F8980107E0601CC4B2FA2CF2
:100FF00003DDFFF7C1FF012010BD064880380068FF
:101000000028F2D10349091F086000BFF4E700007F
:10101000000C01409C8121420080214208B5012141
:10102000042000F0D7F90121082000F0D3F91420A2
:101030008DF803000120ADF8000003208DF80200B8
:1010400069460D48FFF76EFE14208DF803004FF43B
:101050000040ADF8000003208DF802006946074803
:10106000FFF760FE01210448FFF7F2FE4FF4004154
:101070000248FFF7EDFE08BD00080140000C0140EA
:1010800010B54FF400410848FFF7D7FE0446012C85
:1010900004D1C1030448FFF7D9FE04E04FF4004136
:1010A0000148FFF7D5FE10BD000C014002460811B3
:1010B000107010780A2803DA10783030107008E0C9
:1010C00010780F2803DC10783730107001E02020F2
:1010D0001070521C01F00F00107010780A2803DA0B
:1010E00010783030107008E010780F2803DC10788A
:1010F0003730107001E020201070521C0220704721
:1011000010B54FF4407000F039F810BD70B50021F3
:1011100000230F22C47804B3154C246804F4E0645F
:10112000C4F5E064210AC1F10403CA40447804FA1A
:1011300003F184781440214309010E4C0678A1552F
:10114000047804F01F050124AC4005786D11AD0052
:1011500005F1E025C5F8004109E0047804F01F0519
:101160000124AC40044D0678761145F8264070BD48
:101170000CED00E000E400E080E100E00249014302
:10118000024A1160704700000000FA050CED00E013
:1011900070B5002418E0002504F0070141F0B0000C
:1011A00000F073F8284600F070F845F0100000F0E9
:1011B0006CF8002604E0002000F085F8701CC6B230
:1011C000802EF8DB601CC4B2082CE4DB70BD10B5C7
:1011D000FFF764FE4FF4967001F07AFAAE2000F04B
:1011E00054F8002000F051F8102000F04EF8402094
:1011F00000F04BF8812000F048F8CF2000F045F8CF
:10120000A12000F042F8C82000F03FF8A62000F02E
:101210003CF8A82000F039F83F2000F036F8D32041
:1012200000F033F8002000F030F8D52000F02DF861
:10123000802000F02AF8D92000F027F8F12000F0F3
:1012400024F8DA2000F021F8122000F01EF8DB204C
:1012500000F01BF8402000F018F8202000F015F8EE
:10126000022000F012F88D2000F00FF8142000F09A
:101270000CF8A42000F009F8A62000F006F8FFF70B
:1012800087FFAF2000F001F810BD70B505460024BF
:10129000FFF74CFE7820FFF71BFEFFF793FE044399
:1012A0000020FFF715FEFFF78DFE04432846FFF7E9
:1012B0000FFEFFF787FE0443FFF75EFE0CB1002030
:1012C00070BD0120FCE770B505460024FFF72EFE37
:1012D0007820FFF7FDFDFFF775FE04434020FFF780
:1012E000F7FDFFF76FFE04432846FFF7F1FDFFF718
:1012F00069FE0443FFF740FE0CB1002070BD0120E1
:10130000FCE770B504460D4605F1B001C8B2FFF721
:10131000BCFF102141EA1410FFF7B7FF04F00F00E3
:10132000FFF7B3FF70BD00002DE9F04106460F4600
:10133000154639463046FFF7E4FF00240BE0A5F1DF
:10134000200101EB4101064A02EB4101085DFFF774
:10135000BAFF601CC4B2062CF1DBBDE8F0810000CE
:10136000E82F00082DE9F04104460F4615460026F7
:101370000EE0AA5D39462046FFF7D6FFA01DC4B295
:10138000A01D7F2802DD0024781CC7B2701CC6B2E5
:10139000A85D0028EDD1BDE8F081000001460020E5
:1013A000034A506820F440400843506070470000F2
:1013B0000010024029B1064AD2690243044BDA61A7
:1013C00004E0034AD2698243014BDA6170470000AE
:1013D0000010024029B1064A92690243044B9A6107
:1013E00004E0034A92698243014B9A61704700000E
:1013F000001002400F48006840F001000D490860ED
:10140000084640680C4908400A4948600846006898
:101410000A490840074908600846006820F480200F
:1014200008600846406820F4FE0048604FF41F0042
:1014300088607047001002400000FFF8FFFFF6FED2
:1014400030B500210022002400232D4D6D6805F0E9
:101450000C0121B1042905D0082923D105E0294D2B
:10146000056022E0274D05601FE0254D6D6805F4FD
:101470007012234D6D6805F48034022505EB92420D
:101480001CB9214D554305600BE01D4D6D6805F4F9
:1014900000351DB11C4D5543056002E0194D554303
:1014A000056002E0174D056000BF00BF144D6D6878
:1014B00005F0F0010909154D6B5C0568DD404560DC
:1014C0000F4D6D6805F4E061090A104D6B5C4568CD
:1014D000DD4085600A4D6D6805F46051C90A0B4D09
:1014E0006B5C4568DD40C560054D6D6805F44041A5
:1014F000890B074D6B5CC568B5FBF3F5056130BD25
:101500000010024000127A0000093D001400002083
:101510002400002010B501460022002300204A11BB
:10152000012A02D1094C236806E0022A02D1074CA5
:10153000236A01E0054C636A01F01F020124944014
:101540001C400CB1012000E0002010BD0010024042
:101550000248406800F00C00704700000010024094
:1015600001460020034A506820F0F0000843506014
:1015700070470000001002400149086070470000F9
:101580000000424201460020034A506820F4E06017
:1015900008435060704700000010024001460020E0
:1015A000034A506820F4605040EAC1005060704720
:1015B00000100240014908667047000000004242E6
:1015C00002460020044B586820F47C1042EA0103D4
:1015D0001843014B5860704700100240014600203C
:1015E000034A506820F00300084350607047000031
:1015F0000010024010B503460020054C234403E0D0
:1016000013F8014B0C54401C9042F9D310BD00005C
:1016100000F000082DE9F04704466078217840EAA0
:1016200001200FFA80F9484601F033FB07460022FB
:10163000034B01F0A9F9054601F074F9BDE8F08704
:10164000000030402DE9F04704466078217840EAF8
:1016500001200FFA80F9484601F01BFB07460022E3
:10166000034B01F091F9054601F05CF9BDE8F08704
:10167000000060402DE9F05F82469AF801009AF878
:10168000001040EA01200FFA80FB584601F001FBF0
:1016900080460022064B01F077F906460022054BF2
:1016A00001F072F9044601F03DF9BDE8F09F000039
:1016B0000000204000408F4000B587B00121042089
:1016C000FFF788FE01210803FFF784FEE020ADF854
:1016D000180018208DF81B0003208DF81A0006A9A9
:1016E0001748FFF71FFBE0211548FFF7B1FB00206B
:1016F000ADF804004FF48270ADF806000020ADF89C
:1017000008000220ADF80A000120ADF80C004002EC
:10171000ADF80E003820ADF810000020ADF8120032
:101720000720ADF8140001A9064800F065F8012172
:10173000044800F047F8FF2000F006F807B000BDAD
:10174000000801400030014070B50546002405E066
:10175000601CC4B2C82C01DD002070BD02210E48FF
:1017600000F03CF80028F3D029460B4800F042F87E
:10177000002405E0601CC4B2C82C01DD0020ECE7A9
:101780000121054800F02AF80028F3D0024800F0B3
:101790002EF8C0B2E1E700000030014010B5044669
:1017A000074800884FF6C771084005490880084679
:1017B0000088204308800121014800F003F810BD93
:1017C0000030014021B1028842F04002028004E072
:1017D00002884FF6BF731A4002807047024600200D
:1017E00013890B400BB1012000E000207047014637
:1017F000888970478181704710B50022028802F401
:1018000041520B884C8823438C882343CC88234344
:101810000C8923434C8923438C892343CC8923435C
:101820001A430280838B4FF2FF74234083830B8A19
:10183000038210BD7FB500200090019002900390BC
:101840000F490870002413E000250DE0C4EB0410DC
:101850000C4901EB4000405D5DF8241040EA012096
:101860004DF82400681CC5B2042DEFDB601CC4B227
:10187000042CE9DB04226946002000F0D9FE7FBD7C
:10188000980000202801002070B50446A848007880
:10189000217888420ED1A64840786178884209D1E3
:1018A000A3488078A178884204D1A148C078E17823
:1018B00088427AD09E48807F2178884210D19C4807
:1018C000C07F617888420BD1994890F82000A178B8
:1018D000884205D1964890F82100E1788842E8D006
:1018E000934890F83C002178884211D1904890F8B4
:1018F0003D00617888420BD18D4890F83E00A17878
:10190000884205D18A4890F83F00E1788842D0D0DB
:10191000874890F85A002178884211D1844890F87D
:101920005B00617888420BD1814890F85C00A17817
:10193000884205D17E4890F85D00E1788842B8D0B1
:101940007C4800782178884214D17A4840786178C0
:1019500088420FD177488078A17888420AD17548AB
:10196000C078E178884205D173480078401C7249FC
:10197000087008E020786F49087060784870A07897
:101980008870E078C8706C48007803280DD100207A
:101990006949087069480078012807D0022831D0C9
:1019A00003285ED0042878D18DE0BFE0207860491C
:1019B000087060784870A0788870E078C870FFF789
:1019C00039FF00205E49087105215D48FEF786FC5D
:1019D0005B494871062600250EE028466A1CD5B2F0
:1019E000574A115C574800F01EFE00BF4021554881
:1019F00000F04CFD0028F9D0301EA6F10101CEB256
:101A0000EBD192E020784A49887761784848C177DD
:101A1000A17880F82010E17880F82110FFF70AFF04
:101A200001204749087105214548FEF757FC444904
:101A30004871062600250EE028466A1CD5B2404AA9
:101A4000115C404800F0EFFD00BF40213D4800F030
:101A50001DFD0028F9D0301EA6F10101CEB2EBD158
:101A600063E02078324981F83C006178304880F8A2
:101A70003D10A17880F83E10E17880F83F10FFF724
:101A8000D9FE10202E49087105212D48FEF726FCAD
:101A90002B494871062600250FE045E028466A1CC0
:101AA000D5B2274A115C274800F0BDFD00BF402198
:101AB000244800F0EBFC0028F9D0301EA6F101010B
:101AC000CEB2EBD131E02078194981F85A00617823
:101AD000174880F85B10A17880F85C10E17880F8F6
:101AE0005D10FFF7A7FE1120154908710521144864
:101AF000FEF7F4FB12494871062600250EE0284641
:101B00006A1CD5B20E4A115C0E4800F08CFD00BF75
:101B100040210C4800F0BAFC0028F9D0301EA6F194
:101B20000101CEB2EBD100E000BF00BF70BD0000EC
:101B300028010020A3000020A2000020980000201F
:101B400070000020003801402DE9F84F00249DE08E
:101B500034B1012C08D0022C0AD0032C10D10BE098
:101B600000204D49C8700CE001204B49C87008E0C6
:101B700010204949C87004E011204749C87000E0AE
:101B800000BF00BFC4EB0411444A02EB4101481DF1
:101B9000FFF740FD009001F007F900F0FF0B5846F9
:101BA00001F08EF807463E4A3E4B00F0EDFE05463A
:101BB00001F042F838490871C4EB0411374A02EBCE
:101BC0004101C81DFFF73EFD054601F0EDF832303A
:101BD00031494871C4EB0411304A02EB410101F173
:101BE0000B00FFF747FD06462F4901F031F9054686
:101BF0002E4901F0F9F806D22D48005D40F01000A2
:101C00002B49085505E02A48005D00F0EF002849FF
:101C10000855C4EB0410214901EB4000007901286C
:101C200006D12348005D40F008002149085505E031
:101C30001F48005D00F0F7001D4908551C48005D75
:101C40001549887107211448FEF748FB1249C871ED
:101C50004FF0080A4FF000090FE04846421C02F01E
:101C6000FF090D4A115C134800F0DDFC00BF402164
:101C7000104800F00BFC0028F9D0BAF10000AAF1DE
:101C8000010101F0FF0AE8D1601CC4B2042CFFF688
:101C90005FAFBDE8F88F00005C0000202801002045
:101CA00085EB51B81E850B40000020410000C84163
:101CB0009900002000380140042808D14FF0E021AD
:101CC000096941F004014FF0E022116107E04FF093
:101CD000E021096921F004014FF0E0221161704711
:101CE00008B501210420FFF775FB10208DF80300D3
:101CF000ADF8000003208DF8020069460D48FFF79B
:101D000011F810208DF803000820ADF80000032022
:101D10008DF8020069460748FFF704F8FFF7CCFC8E
:101D20001820FFF73BFD012000F006F800F058F8FE
:101D300008BD00000008014010B50446012C07D181
:101D400008210648FFF784F8C82000F0C1FC03E032
:101D500008210248FFF77AF810BD00000008014092
:101D60002DE9F0410746002500260024A046102159
:101D70001A48FFF76BF823E00420FFF7E5FC002585
:101D800007E0FF20FFF7E0FC05EB86017854681CB4
:101D9000C5B2042DF5DBFF20FFF7D6FC044604F0A6
:101DA000800010B10020BDE8F081002C05DD08EBBB
:101DB000040000F0FF08701CC6B2202C00D000E028
:101DC000DAE700BF10210548FFF742F808F10701E4
:101DD000C81701EB5070C0F3C700E4E700080140EA
:101DE0001FB501210846FFF7F5FA01210820FFF78A
:101DF000F1FA48208DF80F000120ADF80C00032007
:101E00008DF80E0003A91248FEF78CFF0021012077
:101E1000FEF768FF012001900C208DF809000020DA
:101E20008DF8080001208DF80A0001A8FEF7CEFD0C
:101E300006208DF800000D208DF8010000208DF89F
:101E4000020001208DF803006846FFF75FF91FBD0F
:101E5000000C014010B500240AE0074A02EB4402DE
:101E60005178054A12F8140000F008F8601CC4B25A
:101E70001E2CF2DB10BD00002932000870B50546AB
:101E80000C4610210848FEF7E1FF0220FFF75CFC3A
:101E90002846FFF759FC2046FFF756FC1021024860
:101EA000FEF7D6FF70BD00000008014010B50446E3
:101EB0002146024800F05CF810BD0000000400401C
:101EC00010B50121214800F05FF840B101211F4801
:101ED00000F04BF81E480068401C1D4908601C4873
:101EE00000685021B0FBF1F201FB120060B9002044
:101EF0001749086017480078401C164908701648B2
:101F0000007808B9FFF720FE1248007803281CD19A
:101F1000002010490870002415E01048005D0128D9
:101F200006D10F48005D00F0DF000D49085505E0BF
:101F30000B48005D40F02000094908550020074982
:101F40000855601CC4B2042CE7DB10BD000400403F
:101F50003000002034000020970000209D00002069
:101F600099000020CA4302827047CA430282704728
:101F700021B1028842F00102028004E002884FF69B
:101F8000FE731A400280704730B5024600200023DD
:101F90000024158A05EA0103958905EA010413B1B5
:101FA0000CB1012000E0002030BD1AB183890B4341
:101FB000838102E083898B438381704700220288FA
:101FC0001D4B98420ED01D4B98420BD0B0F1804F64
:101FD00008D01B4B984205D01A4B984202D01A4B9E
:101FE000984204D14FF68F731A404B881A43174B0F
:101FF000984207D0164B984204D04FF6FF431A4040
:10200000CB881A4302808B8883850B8803850A4B13
:1020100098420BD0094B984208D00E4B984205D0FD
:102020000D4B984202D00D4B984201D10B7A03869A
:102030000123838270470000002C014000340140DE
:102040000004004000080040000C00400010004068
:10205000001400400040014000440140004801409D
:102060007FB504460D4601210220FFF7A3F90020A9
:10207000ADF80A00ADF80600ADF80840681E80B261
:10208000ADF8040001A90E48FFF798FF1D208DF858
:10209000000001208DF803000E208DF801000020C3
:1020A0008DF802006846FFF731F801210448FFF778
:1020B00059FF012211460248FFF777FF7FBD00005C
:1020C0000004004038B505460C4600200090681E0C
:1020D000C0EB0010744911F810008DF80000681E64
:1020E000C0EB001001EB400040788DF80100681E45
:1020F000C0EB001001EB400080788DF80200681EF4
:10210000C0EB001001EB4000C0788DF80300601EAA
:10211000C0EB001011F81010681EC0EB0010624AEE
:1021200002F81010601EC0EB0010114601EB4000D9
:102130004178681EC0EB001002EB40004170601E49
:10214000C0EB0010114601EB40008178681EC0EB27
:10215000001002EB40008170601EC0EB00101146C1
:1021600001EB4000C178681EC0EB001002EB40009C
:10217000C1709DF80010601EC0EB001002F8101036
:102180009DF80110601EC0EB001002EB4000417092
:102190009DF80210601EC0EB001002EB4000817041
:1021A0009DF80310601EC0EB001002EB4000C170F0
:1021B0000021681EC0EB001002EB40000171681E98
:1021C000C0EB001002EB40004171681EC0EB001034
:1021D00002EB40008171681EC0EB001002EB400072
:1021E000C171681EC0EB001002EB40000172681E56
:1021F000C0EB001002EB40004172681EC0EB001003
:1022000002EB40008172681EC0EB001002EB400040
:10221000C172681EC0EB001002EB40000173681E23
:10222000C0EB001002EB40004173601EC0EB0010D9
:1022300002EB40000171601EC0EB001002EB400099
:102240004171601EC0EB001002EB40008171601E06
:10225000C0EB001002EB4000C171601EC0EB00102B
:1022600002EB40000172601EC0EB001002EB400068
:102270004172601EC0EB001002EB40008172601ED4
:10228000C0EB001002EB4000C172601EC0EB0010FA
:1022900002EB40000173601EC0EB001002EB400037
:1022A0004173FFF7C7FA38BD280100202DE9F0413E
:1022B00004460D461048047145710621FEF70EF8DC
:1022C0000D498871072700260EE03046721CD6B2F1
:1022D000094A115C094800F0A6F900BF40210748EF
:1022E00000F0D4F80028F9D0381EA7F10101CFB2D0
:1022F000EBD1BDE8F08100009000002000380140E3
:1023000070B500BF40F225511F4800F0CCF850B323
:102310001D4800F083F9C4B20D2C0FD01B481C4996
:10232000098844541A490988481CC11700EB5161B7
:10233000C911A0EBC111164A118024E00021144AF2
:102340001088C21700EB5262D211A0EBC2120F4BE1
:1023500099540F48008840F480700D4908800A2085
:1023600000F078F80FE040F22441074800F09BF8B5
:1023700048B105480088C5B20348001D0088C5B2B1
:1023800001200449087070BD00380140A8000020F9
:102390003C0000203E00002010B586B0044601211C
:1023A0000420FFF717F801218803FFF713F818201E
:1023B0008DF817004FF40070ADF8140003208DF86D
:1023C000160005A92148FEF7ADFC04208DF8170082
:1023D0000002ADF8140003208DF8160005A91B4873
:1023E000FEF7A0FC01940020ADF810000C20ADF821
:1023F0000E000020ADF80C00ADF80A00ADF80800A2
:1024000001A9134800F09EF825208DF800000F2048
:102410008DF8010000208DF8020001208DF80300E6
:102420006846FEF773FE012240F22441084800F09E
:1024300064F8012240F22551054800F05EF80121C0
:10244000034800F017F806B010BD00000008014076
:102450000038014010B5044600BF4021044800F098
:1024600015F80028F9D02146014800F0DCF810BD2D
:102470000038014021B1828942F40052828104E097
:1024800082894DF6FF731A40828170470246002010
:10249000B1F5007F00D100BF13880B400BB10120C4
:1024A00000E00020704770B502460024002300259C
:1024B000002040F66A16B14200D100BFC1F34215B8
:1024C00001F01F03012606FA03F3012D02D19689BC
:1024D000334006E0022D02D1168A334001E0968A8D
:1024E00033400C12012606FA04F41688344013B166
:1024F0000CB1012000E0002070BDF0B503460024BF
:1025000000260025002040F66A17B94200D100BF1E
:102510001846C1F3421401F01F06012707FA06F519
:10252000012C01D10C3004E0022C01D1103000E06C
:1025300014301AB107682F43076002E00768AF4301
:102540000760F0BD2DE9F04786B005460E46002431
:10255000A24600BFA1460027B08900B100BF2F46A8
:102560002C8A4CF6FF700440F08804432C82AC891E
:102570004EF6F3100440B08831890843718908434E
:102580000443AC81AC8A4FF6FF400440B089044359
:10259000AC8201A8FEF754FF1F48874202D1DDF844
:1025A00010A001E0DDF80CA0A88900F4004040B1C3
:1025B0000AEBCA0000EB0A1031684900B0FBF1F8E1
:1025C00007E00AEBCA0000EB0A1031688900B0FB93
:1025D000F1F86420B8FBF0F004012009642101FB4C
:1025E0001089A88900F4004040B1322000EBC900F6
:1025F000B0FBF1F000F00700044308E0322000EBEC
:1026000009106421B0FBF1F000F00F0004432C81AD
:1026100006B0BDE8F0870000003801400146888818
:10262000C0F308007047C1F30802828070470000C1
:102630002DE9F04105460E461746FEF733FB3420E0
:10264000FEF790FA0E48FEF793FA0E490870084616
:10265000007804280FD100240BE0094A2A4402EB39
:10266000840056F82410FEF7DBFA06490870601C57
:10267000C4B2BC42F1DBFEF7BBFABDE8F08100005A
:1026800000F00008A100002000BF704710B56FF0F7
:102690000400FFF711FB0A4800680A49B0FBF1F09B
:1026A000094908700846007800EB4001C1EBC010F2
:1026B0004FF6FF7101EAC0000449088010BD000018
:1026C0000000002000127A00280000202A000020CC
:1026D0000146114A12884A434FF0E0235A61002212
:1026E0009A611A46126942F001021A6100BF4FF066
:1026F000E022106900F001021AB100F48032002AD1
:10270000F5D04FF0E022126922F001024FF0E023F1
:102710001A6100229A6170472A0000200146114A7E
:1027200012784A434FF0E0235A6100229A611A4618
:10273000126942F001021A6100BF4FF0E0221069F5
:1027400000F001021AB100F48032002AF5D04FF0F7
:10275000E022126922F001024FF0E0231A61002208
:102760009A61704728000020FDF770FEFEF7C8FC54
:10277000FFF78CFFFEF752FC4FF49640FFF70CFE7C
:1027800040214CF25030FFF76BFC0120FFF78EFB2D
:10279000FEF71DFDFDF792FFFEF7D8F85B48FDF749
:1027A0009DFF5A481E30FDF7E7FF58483C30FEF7C2
:1027B00031F856485A30FEF77BF8FFF791FAFFF7E9
:1027C00049FBFEF747FBA0E051480078012804D1FF
:1027D00000204F490870FDF76FFE4E480078002832
:1027E000F1D04D4D4D48007800286FD1002470E0A5
:1027F00000260EE0A85DC4EB0411444A02EB41013F
:10280000895D884201D1012701E0002703E0701CA7
:10281000C6B2042EEEDB00BF012F58D10120404983
:1028200008552878C4EB0411384A02F8110068787A
:10283000C4EB041102EB41014870A878C4EB041109
:1028400002EB41018870E878C4EB041102EB41010E
:10285000C8702879C4EB041102EB41010871687952
:10286000C4EB041102EB41014871A979C4EB0410D7
:1028700002EB40008171E879C4EB041102EB4101E5
:10288000C871297AC4EB041002EB40000172687A27
:10289000C4EB041102EB41014872A97AC4EB0410A5
:1028A00002EB40008172E87AC4EB041102EB4101B3
:1028B000C872297BC4EB041002EB40000173687BF3
:1028C000C4EB041102EB4101487304E014E0601C06
:1028D000C4B2042C8CDB00BF0C48FDF7FFFE0B4894
:1028E0001E30FDF749FF09483C30FDF793FF0748CC
:1028F0005A30FDF7DDFF02E02846FEF7C5FFFEF780
:10290000BFFB00200349087000BF5DE728010020DD
:102910003E000020A7000020A0010020970000201A
:102920009D00002021F00042A2F16052B2F5801F0C
:1029300001F0004328BFD2F17F6C0BD95FEA001C85
:1029400043EAC20242EB507018BF704728BF20F024
:1029500001007047B2F5801FBCBF184670474FEAB0
:10296000410C1CF5001F02D2084600F038BB70B5C0
:1029700000F0B9F900000089FFF7F6BF4FF0004002
:10298000A0F58000704700002DE9C04130B4DFF8A9
:10299000A0C23CEA111418BF3CEA131400F0EC800A
:1029A00081EA03051CEA111444EAD57418BF1CEA35
:1029B000131500F0C780A4EB05044FF0004545EA6D
:1029C000C12145EAC32341EA505143EA525304F17D
:1029D0007F74994204F500344FEAC0204FEAC222C6
:1029E00008BF904200F09C804FEA13650FF240163A
:1029F000765D4FEA134506FB05F7C7F1807706FBC6
:102A000007F74FEAD737A7FB03687642C8F5803847
:102A1000A7FB06CE38BFA8F1010807FB08E64FF078
:102A2000000EA6FB028CE6FB03CEDCF1000CCEF11F
:102A3000004E38BFAEF1010EA6FB0C584FF0000758
:102A40004FF00005E6FB0E87A1FB08C6A0FB07CEF2
:102A500016EB0E0645F10005E1FB076515F1E04EAA
:102A60007EBFA4F580345FEA46066D4116F180070B
:102A700045F100054FEA17274FEA066647EA056762
:102A8000A6F1DE46B6F1805F4FEA15251FD938461C
:102A900024F0010C05EBC471BCF1FE6F01EB0C11CD
:102AA00002D8F0BCBDE8008124425CBF01F5801E65
:102AB0009EEAC47F02D4F0BCBDE80081244238D431
:102AC000F0BCA1F1C041BDE8004100F05AB94FEAA5
:102AD000D22242EA43524FEAD323A7FB02864FEAAF
:102AE000D02040EA415007FB03661EEA0E0F4FEA72
:102AF000D12105FB026658BFA6EB0056B6EB005687
:102B00004FEA520E4EEAC37E18EB0E0E56EB530EF2
:102B1000BDD518EB02085E417F1C55F10005B6E7F4
:102B20004FF480154FF000074FF000064FF00008FB
:102B3000ADE7F0BC4FF0000001F1C04101F00041F1
:102B4000BDE8008111EA0C1F0CEA131500D00CE05F
:102B500013EA0C1F00F025804FF00000F0BC81EA62
:102B6000030101F00041BDE80081F0BCBDE8004177
:102B700081EA030100F005B9F0BCBDE8004170B581
:102B800000F0B1F8097EFC3E00F007B881EA0301CD
:102B90004FF0000001F00041704781EA030100F0AE
:102BA000F0B8F0BCBDE800414FF00000214970478B
:102BB000FFFDFBF9F7F5F4F2F0EEEDEBE9E8E6E402
:102BC000E3E1E0DEDDDBDAD8D7D5D4D3D1D0CFCD89
:102BD000CCCBCAC8C7C6C5C4C2C1C0BFBEBDBCBBC2
:102BE000BAB9B8B7B6B5B4B3B2B1B0AFAEADACABBD
:102BF000AAA9A8A8A7A6A5A4A3A3A2A1A09F9F9E97
:102C00009D9C9C9B9A999998979796959594939348
:102C1000929191908F8F8E8E8D8C8C8B8B8A8989DF
:102C20008888878786858584848383828281818062
:102C30000000FF070000F87F4FEA1153A3F58063FF
:102C4000D3F11E03A8BFD3F1200C08DB4FF00042E4
:102C500042EAC12252EA505232FA03F07047094266
:102C60000BD4102BC4BF0020704703F5787CBCF157
:102C7000FF3F05D04FF0FF3070474FF00000704726
:102C800070B500F030F800BF4992248000207047F2
:102C9000F0E710F0004248BF4042B0FA80F310FA6B
:102CA00003F10AD0C3F11D0303F580634FEA4150DD
:102CB00002EB035202EBD12170474FF00000704746
:102CC000B0FA80F310FA03F10AD0C3F11D0303F543
:102CD00080634FEA41504FEA035202EBD121704723
:102CE0004FF0000070470EF1020E2EF0030E5EF85A
:102CF000046B364205D4012A43EB030515F5001F8A
:102D000012D8012841EB010C1CF5001F0CD80ED184
:102D10004FEAD17C15F5001F0CEB4C0C0CF1020CAA
:102D200008BF4CEBD37C04E04FF0080C01E04FEA05
:102D3000D37C0CEB4C0526FA05F606F00706B6F137
:102D4000040C06D20EEB860CBDE870404CF0010C72
:102D50006047DFE80CF0090B02024FF000414FF032
:102D60000000A1F5002170BD19461046012851EB65
:102D7000010418BFD4F5001484BF002001F0004105
:102D800070BD0808A0F500114FEA310170474010EE
:102D900058BFC0F14040491058BFC1F14041814285
:102DA000EFF3008070470000C10DD1F19E0206DBF9
:102DB0004FEA002343F0004323FA02F07047004239
:102DC00007D54FEA4001B1F1FE4F02D24FF00000AB
:102DD000704710B500F0BDF849922480002070477C
:102DE0006FEA20007047000050EA010C00F11380E8
:102DF0001CF5000F58BFBCF5000F01D48842704786
:102E000007D710F5000F58BF11F5000F15D48842F1
:102E10007047894270471CF5000F04D5BCF5000FC0
:102E2000F7D5814270474FF0807C1CEB400F38BFD4
:102E30001CEB410F01D28142704710B500F089F8B8
:102E4000922449004FF000504FF08051FFF79FBF90
:102E50004FF47F0C1CEAD0121EBF1CEAD11392EA79
:102E60000C0F93EA0C0F00F0478090EA010F48BF67
:102E700042F480724FF0004C4CEA00204CEA0121F1
:102E800002EB0302A0FB0113A2F50002002918BF08
:102E900043F001035B0028BF4FEA330342EB2242B9
:102EA0005FEA132C4CEBC2502EBFBCEB436FB2F564
:102EB0007C0F70474FEA036CBCF1004F08BF20F055
:102EC0000100B2F57C0F38BF70470BD582F0FF02CE
:102ED00012F5803FC8BF704700F1C040D8BF00F076
:102EE0000040704700F5000C5FEA4C0C48BF70478B
:102EF000B0F1C04000F073B890EA010F0CEAD113B2
:102F000048BF42F48072624538BF634504D280EA0C
:102F1000010000F00040704710B500F01AF800BF43
:102F20008900013E00F007B800F009B85FEA410CE3
:102F30005FEA1C6C08D080EA010000F050B85FEA3C
:102F4000400C5FEA1C6CF6D14FF00040A0F5800009
:102F500070470EF1020E2EF0030E5EF8044B244271
:102F600004D44FEA4102B2F17F4F11D84FEA400337
:102F7000B3F17F4F0CD80ED14FEAD07CB2F17F4F26
:102F80000CEB4C0C0CF1020C08BF4CEBD17C04E0B8
:102F90004FF0080C01E04FEAD17C0CEB4C0324FA13
:102FA00003F404F00704B4F1040C06D20EEB840C15
:102FB000BDE810404CF0010C6047DFE80CF007085A
:102FC00002024FF00040A0F5800010BD084642000C
:102FD00018BFD2F1807288BF00F0004010BDFF2101
:102FE00041EAD050C005704700000000000000001A
:102FF000BE000000000600060000147F147F1400CD
:10300000004C7A4F320000661668660000384F4D5B
:10301000320000000003000000003E4100000000FC
:10302000413E0000001C3E1C000000083E0800005D
:1030300000000060000000080808080000004000D0
:1030400000000040300C0300003E41413E000042C1
:103050007F40000000625149460000224949360085
:103060000038267F2000004F49493100003E494981
:103070003200000371090700003649493600002676
:1030800049493E00000024000000004024000000E8
:1030900000081422410000141414140000412214EA
:1030A0000800000251090600000E71497E00007EF2
:1030B00011117E00007F49493600003E4141220047
:1030C000007F41413E00007F49494100007F0909DE
:1030D0000100003E41493A00007F08087F0000419E
:1030E0007F410000003040403F00007F0814630033
:1030F000007F40404000007F06067F00007F0618EA
:103100007F00007F41417F00007F09090600003EEB
:1031100051617E00007F192946000026494932008E
:1031200000017F010100003F40403F00000F707030
:103130000F00007F30307F0000631C1C630003041D
:10314000780403000061594D430000007F410000F6
:10315000030C304000000000417F0000000201022B
:10316000000000404040400000000300000000203C
:1031700058587800007F48483000003048484800E0
:10318000003048487F0000305858100000087C0A82
:1031900008000010A8A87800007F08780000000050
:1031A00074000000008080740000007F1028480038
:1031B00000407F4000000078087878000078080818
:1031C000700000304848300000F8484830000030B7
:1031D0004848F80000781008080000505868280097
:1031E00000087C480000003840407800001860600B
:1031F0001800186038601800004830304800001887
:10320000A0A07800004868584800000877410000F6
:1032100000007F000000004177080000000201026A
:103220000100013C424242001EA6008000241C26F0
:103230007E27012D502F50312239023A0E3B2A3C75
:10324000093D313E043F0C40054171427D44084533
:103250003748024C754E1051665256567058155AE2
:10326000F29402A60200000088320008000000204C
:10327000A80000002801000830330008A800002042
:1032800098070000440100080090D00300000000EF
:103290000000000001020304060708090000000006
:1032A00001020304010203040607080902040608D8
:1032B000000000000000000000000000000000000E
:1032C00000000000000000000000FFFFFFFFFFFF04
:1032D000FFFFFFFFFFFFFFFFFFFFFFFF000080BFBB
:1032E000000080BF55AA0800000000000000000098
:1032F000000055AA0610000055AA0618000055AA9D
:103300000900000000000055AA0A2001000000008A
:10331000000000000000000055AA07300000000077
:103320000000000000000000000400000000000099
:04000005080000ED02
:00000001FF
